{
  "_format": "hh-sol-artifact-1",
  "contractName": "NeighborDID",
  "sourceName": "contracts/NeighborDID.sol",
  "abi": [
    {
      "anonymous": false,
      "inputs": [
        {
          "indexed": true,
          "internalType": "address",
          "name": "_lords",
          "type": "address"
        }
      ],
      "name": "AddLord",
      "type": "event"
    },
    {
      "anonymous": false,
      "inputs": [
        {
          "indexed": true,
          "internalType": "address",
          "name": "_from",
          "type": "address"
        },
        {
          "indexed": true,
          "internalType": "address",
          "name": "_to",
          "type": "address"
        }
      ],
      "name": "TransferOwnership",
      "type": "event"
    },
    {
      "inputs": [
        {
          "internalType": "address",
          "name": "_lord",
          "type": "address"
        }
      ],
      "name": "addLord",
      "outputs": [],
      "stateMutability": "nonpayable",
      "type": "function"
    },
    {
      "inputs": [
        {
          "internalType": "address",
          "name": "_resident",
          "type": "address"
        }
      ],
      "name": "checkCredential",
      "outputs": [
        {
          "internalType": "bool",
          "name": "",
          "type": "bool"
        }
      ],
      "stateMutability": "view",
      "type": "function"
    },
    {
      "inputs": [
        {
          "internalType": "address",
          "name": "_resident",
          "type": "address"
        },
        {
          "internalType": "bytes",
          "name": "_value",
          "type": "bytes"
        }
      ],
      "name": "claimCredential",
      "outputs": [
        {
          "internalType": "bool",
          "name": "",
          "type": "bool"
        }
      ],
      "stateMutability": "nonpayable",
      "type": "function"
    },
    {
      "inputs": [
        {
          "internalType": "address",
          "name": "_resident",
          "type": "address"
        }
      ],
      "name": "deleteCredential",
      "outputs": [
        {
          "internalType": "bool",
          "name": "",
          "type": "bool"
        }
      ],
      "stateMutability": "nonpayable",
      "type": "function"
    },
    {
      "inputs": [
        {
          "internalType": "address",
          "name": "_lord",
          "type": "address"
        }
      ],
      "name": "isLord",
      "outputs": [
        {
          "internalType": "bool",
          "name": "",
          "type": "bool"
        }
      ],
      "stateMutability": "view",
      "type": "function"
    },
    {
      "inputs": [
        {
          "internalType": "address",
          "name": "",
          "type": "address"
        }
      ],
      "name": "lords",
      "outputs": [
        {
          "internalType": "bool",
          "name": "",
          "type": "bool"
        }
      ],
      "stateMutability": "view",
      "type": "function"
    },
    {
      "inputs": [
        {
          "internalType": "address",
          "name": "_to",
          "type": "address"
        }
      ],
      "name": "transferOwnership",
      "outputs": [],
      "stateMutability": "nonpayable",
      "type": "function"
    }
  ],
  "bytecode": "0x608060405234801561001057600080fd5b50336000806101000a81548173ffffffffffffffffffffffffffffffffffffffff021916908373ffffffffffffffffffffffffffffffffffffffff16021790555060018060003373ffffffffffffffffffffffffffffffffffffffff1673ffffffffffffffffffffffffffffffffffffffff16815260200190815260200160002060006101000a81548160ff02191690831515021790555061155b806100b76000396000f3fe608060405234801561001057600080fd5b506004361061007d5760003560e01c806364cbf4881161005b57806364cbf48814610112578063ca8d7c441461012e578063f2fde38b1461015e578063fcecece71461017a5761007d565b80631476f758146100825780633cd02094146100b25780634045ecc0146100e2575b600080fd5b61009c60048036038101906100979190610c8d565b6101aa565b6040516100a99190610cd5565b60405180910390f35b6100cc60048036038101906100c79190610c8d565b610399565b6040516100d99190610cd5565b60405180910390f35b6100fc60048036038101906100f79190610c8d565b6103ef565b6040516101099190610cd5565b60405180910390f35b61012c60048036038101906101279190610c8d565b610697565b005b61014860048036038101906101439190610d55565b610855565b6040516101559190610cd5565b60405180910390f35b61017860048036038101906101739190610c8d565b6109bf565b005b610194600480360381019061018f9190610c8d565b610bc2565b6040516101a19190610cd5565b60405180910390f35b6000600115156101b933610399565b1515146101fb576040517f08c379a00000000000000000000000000000000000000000000000000000000081526004016101f290610e12565b60405180910390fd5b6000600360008473ffffffffffffffffffffffffffffffffffffffff1673ffffffffffffffffffffffffffffffffffffffff16815260200190815260200160002090506000816000015414610285576040517f08c379a000000000000000000000000000000000000000000000000000000000815260040161027c90610e7e565b60405180910390fd5b3373ffffffffffffffffffffffffffffffffffffffff168160020160009054906101000a900473ffffffffffffffffffffffffffffffffffffffff1673ffffffffffffffffffffffffffffffffffffffff1614610317576040517f08c379a000000000000000000000000000000000000000000000000000000000815260040161030e90610eea565b60405180910390fd5b6000816000018190555060405180602001604052806000815250816001019081610341919061115a565b5060008160020160006101000a81548173ffffffffffffffffffffffffffffffffffffffff021916908373ffffffffffffffffffffffffffffffffffffffff1602179055504281600301819055506001915050919050565b6000600160008373ffffffffffffffffffffffffffffffffffffffff1673ffffffffffffffffffffffffffffffffffffffff16815260200190815260200160002060009054906101000a900460ff169050919050565b600080600360008473ffffffffffffffffffffffffffffffffffffffff1673ffffffffffffffffffffffffffffffffffffffff1681526020019081526020016000206000015403610475576040517f08c379a000000000000000000000000000000000000000000000000000000000815260040161046c90610e7e565b60405180910390fd5b600080600061054d600360008773ffffffffffffffffffffffffffffffffffffffff1673ffffffffffffffffffffffffffffffffffffffff16815260200190815260200160002060010180546104ca90610f73565b80601f01602080910402602001604051908101604052809291908181526020018280546104f690610f73565b80156105435780601f1061051857610100808354040283529160200191610543565b820191906000526020600020905b81548152906001019060200180831161052657829003601f168201915b5050505050610be2565b8093508194508295505050506000600360008773ffffffffffffffffffffffffffffffffffffffff1673ffffffffffffffffffffffffffffffffffffffff16815260200190815260200160002060020160009054906101000a900473ffffffffffffffffffffffffffffffffffffffff166040516020016105ce9190611274565b604051602081830303815290604052805190602001209050600073ffffffffffffffffffffffffffffffffffffffff16600360008873ffffffffffffffffffffffffffffffffffffffff1673ffffffffffffffffffffffffffffffffffffffff16815260200190815260200160002060020160009054906101000a900473ffffffffffffffffffffffffffffffffffffffff1673ffffffffffffffffffffffffffffffffffffffff1614610689576001945050505050610692565b60009450505050505b919050565b60008054906101000a900473ffffffffffffffffffffffffffffffffffffffff1673ffffffffffffffffffffffffffffffffffffffff163373ffffffffffffffffffffffffffffffffffffffff1614610725576040517f08c379a000000000000000000000000000000000000000000000000000000000815260040161071c906112db565b60405180910390fd5b60001515600160008373ffffffffffffffffffffffffffffffffffffffff1673ffffffffffffffffffffffffffffffffffffffff16815260200190815260200160002060009054906101000a900460ff161515146107b8576040517f08c379a00000000000000000000000000000000000000000000000000000000081526004016107af90611347565b60405180910390fd5b60018060008373ffffffffffffffffffffffffffffffffffffffff1673ffffffffffffffffffffffffffffffffffffffff16815260200190815260200160002060006101000a81548160ff0219169083151502179055508073ffffffffffffffffffffffffffffffffffffffff167f6a5398c472988fa42bb867879a64cfbeb45e2304ba6477719faf8333576f24df60405160405180910390a250565b60006001151561086433610399565b1515146108a6576040517f08c379a000000000000000000000000000000000000000000000000000000000815260040161089d90610e12565b60405180910390fd5b6000600360008673ffffffffffffffffffffffffffffffffffffffff1673ffffffffffffffffffffffffffffffffffffffff16815260200190815260200160002090506000816000015414610930576040517f08c379a0000000000000000000000000000000000000000000000000000000008152600401610927906113b3565b60405180910390fd5b60025481600001819055506002600081548092919061094e90611402565b91905055508383826001019182610966929190611455565b50338160020160006101000a81548173ffffffffffffffffffffffffffffffffffffffff021916908373ffffffffffffffffffffffffffffffffffffffff16021790555042816003018190555060019150509392505050565b60008054906101000a900473ffffffffffffffffffffffffffffffffffffffff1673ffffffffffffffffffffffffffffffffffffffff163373ffffffffffffffffffffffffffffffffffffffff1614610a4d576040517f08c379a0000000000000000000000000000000000000000000000000000000008152600401610a44906112db565b60405180910390fd5b60008054906101000a900473ffffffffffffffffffffffffffffffffffffffff1673ffffffffffffffffffffffffffffffffffffffff168173ffffffffffffffffffffffffffffffffffffffff1603610aa557600080fd5b600073ffffffffffffffffffffffffffffffffffffffff168173ffffffffffffffffffffffffffffffffffffffff1603610ade57600080fd5b60008060009054906101000a900473ffffffffffffffffffffffffffffffffffffffff169050816000806101000a81548173ffffffffffffffffffffffffffffffffffffffff021916908373ffffffffffffffffffffffffffffffffffffffff16021790555060008054906101000a900473ffffffffffffffffffffffffffffffffffffffff1673ffffffffffffffffffffffffffffffffffffffff168173ffffffffffffffffffffffffffffffffffffffff167f5c486528ec3e3f0ea91181cff8116f02bfa350e03b8b6f12e00765adbb5af85c60405160405180910390a35050565b60016020528060005260406000206000915054906101000a900460ff1681565b60008060006041845114610bf557600080fd5b60008060006020870151925060408701519150606087015160001a90508083839550955095505050509193909250565b600080fd5b600080fd5b600073ffffffffffffffffffffffffffffffffffffffff82169050919050565b6000610c5a82610c2f565b9050919050565b610c6a81610c4f565b8114610c7557600080fd5b50565b600081359050610c8781610c61565b92915050565b600060208284031215610ca357610ca2610c25565b5b6000610cb184828501610c78565b91505092915050565b60008115159050919050565b610ccf81610cba565b82525050565b6000602082019050610cea6000830184610cc6565b92915050565b600080fd5b600080fd5b600080fd5b60008083601f840112610d1557610d14610cf0565b5b8235905067ffffffffffffffff811115610d3257610d31610cf5565b5b602083019150836001820283011115610d4e57610d4d610cfa565b5b9250929050565b600080600060408486031215610d6e57610d6d610c25565b5b6000610d7c86828701610c78565b935050602084013567ffffffffffffffff811115610d9d57610d9c610c2a565b5b610da986828701610cff565b92509250509250925092565b600082825260208201905092915050565b7f4f6e6c79204c616e644c6f726400000000000000000000000000000000000000600082015250565b6000610dfc600d83610db5565b9150610e0782610dc6565b602082019050919050565b60006020820190508181036000830152610e2b81610def565b9050919050565b7f4e6f206461746100000000000000000000000000000000000000000000000000600082015250565b6000610e68600783610db5565b9150610e7382610e32565b602082019050919050565b60006020820190508181036000830152610e9781610e5b565b9050919050565b7f4e6f207065726d697373696f6e00000000000000000000000000000000000000600082015250565b6000610ed4600d83610db5565b9150610edf82610e9e565b602082019050919050565b60006020820190508181036000830152610f0381610ec7565b9050919050565b600081519050919050565b7f4e487b7100000000000000000000000000000000000000000000000000000000600052604160045260246000fd5b7f4e487b7100000000000000000000000000000000000000000000000000000000600052602260045260246000fd5b60006002820490506001821680610f8b57607f821691505b602082108103610f9e57610f9d610f44565b5b50919050565b60008190508160005260206000209050919050565b60006020601f8301049050919050565b600082821b905092915050565b6000600883026110067fffffffffffffffffffffffffffffffffffffffffffffffffffffffffffffffff82610fc9565b6110108683610fc9565b95508019841693508086168417925050509392505050565b6000819050919050565b6000819050919050565b600061105761105261104d84611028565b611032565b611028565b9050919050565b6000819050919050565b6110718361103c565b61108561107d8261105e565b848454610fd6565b825550505050565b600090565b61109a61108d565b6110a5818484611068565b505050565b5b818110156110c9576110be600082611092565b6001810190506110ab565b5050565b601f82111561110e576110df81610fa4565b6110e884610fb9565b810160208510156110f7578190505b61110b61110385610fb9565b8301826110aa565b50505b505050565b600082821c905092915050565b600061113160001984600802611113565b1980831691505092915050565b600061114a8383611120565b9150826002028217905092915050565b61116382610f0a565b67ffffffffffffffff81111561117c5761117b610f15565b5b6111868254610f73565b6111918282856110cd565b600060209050601f8311600181146111c457600084156111b2578287015190505b6111bc858261113e565b865550611224565b601f1984166111d286610fa4565b60005b828110156111fa578489015182556001820191506020850194506020810190506111d5565b868310156112175784890151611213601f891682611120565b8355505b6001600288020188555050505b505050505050565b60008160601b9050919050565b60006112448261122c565b9050919050565b600061125682611239565b9050919050565b61126e61126982610c4f565b61124b565b82525050565b6000611280828461125d565b60148201915081905092915050565b7f4f6e6c79206f776e657200000000000000000000000000000000000000000000600082015250565b60006112c5600a83610db5565b91506112d08261128f565b602082019050919050565b600060208201905081810360008301526112f4816112b8565b9050919050565b7f4865206973206c7265616479206c6f7264000000000000000000000000000000600082015250565b6000611331601183610db5565b915061133c826112fb565b602082019050919050565b6000602082019050818103600083015261136081611324565b9050919050565b7f416c726561647920726573696465000000000000000000000000000000000000600082015250565b600061139d600e83610db5565b91506113a882611367565b602082019050919050565b600060208201905081810360008301526113cc81611390565b9050919050565b7f4e487b7100000000000000000000000000000000000000000000000000000000600052601160045260246000fd5b600061140d82611028565b91507fffffffffffffffffffffffffffffffffffffffffffffffffffffffffffffffff820361143f5761143e6113d3565b5b600182019050919050565b600082905092915050565b61145f838361144a565b67ffffffffffffffff81111561147857611477610f15565b5b6114828254610f73565b61148d8282856110cd565b6000601f8311600181146114bc57600084156114aa578287013590505b6114b4858261113e565b86555061151c565b601f1984166114ca86610fa4565b60005b828110156114f2578489013582556001820191506020850194506020810190506114cd565b8683101561150f578489013561150b601f891682611120565b8355505b6001600288020188555050505b5050505050505056fea26469706673582212208407a9471b5ebdf65894695c4236656a3495b75536f987d7d26ab5f7dfa13f8b64736f6c63430008110033",
  "linkReferences": {},
  "deployedLinkReferences": {}
}